{
	"_format": "hh3-artifact-1",
	"contractName": "TrustlessVote",
	"sourceName": "contracts/TrustlessVote.sol",
	"abi": [
		{
			"anonymous": false,
			"inputs": [
				{
					"indexed": true,
					"internalType": "string",
					"name": "electionId",
					"type": "string"
				},
				{
					"indexed": true,
					"internalType": "address",
					"name": "admin",
					"type": "address"
				}
			],
			"name": "ElectionCreated",
			"type": "event"
		},
		{
			"anonymous": false,
			"inputs": [
				{
					"indexed": true,
					"internalType": "string",
					"name": "electionId",
					"type": "string"
				},
				{
					"indexed": false,
					"internalType": "enum TrustlessVote.Phase",
					"name": "newPhase",
					"type": "uint8"
				}
			],
			"name": "PhaseChanged",
			"type": "event"
		},
		{
			"anonymous": false,
			"inputs": [
				{
					"indexed": true,
					"internalType": "string",
					"name": "electionId",
					"type": "string"
				},
				{
					"indexed": true,
					"internalType": "address",
					"name": "voter",
					"type": "address"
				},
				{
					"indexed": false,
					"internalType": "bytes32",
					"name": "commitment",
					"type": "bytes32"
				}
			],
			"name": "VoteCommitted",
			"type": "event"
		},
		{
			"anonymous": false,
			"inputs": [
				{
					"indexed": true,
					"internalType": "string",
					"name": "electionId",
					"type": "string"
				},
				{
					"indexed": true,
					"internalType": "address",
					"name": "voter",
					"type": "address"
				},
				{
					"indexed": false,
					"internalType": "string",
					"name": "candidateId",
					"type": "string"
				}
			],
			"name": "VoteRevealed",
			"type": "event"
		},
		{
			"anonymous": false,
			"inputs": [
				{
					"indexed": true,
					"internalType": "string",
					"name": "electionId",
					"type": "string"
				},
				{
					"indexed": true,
					"internalType": "address",
					"name": "voter",
					"type": "address"
				}
			],
			"name": "VoterAdded",
			"type": "event"
		},
		{
			"inputs": [
				{
					"internalType": "string",
					"name": "electionId",
					"type": "string"
				},
				{
					"internalType": "address",
					"name": "voter",
					"type": "address"
				}
			],
			"name": "addVoter",
			"outputs": [],
			"stateMutability": "nonpayable",
			"type": "function"
		},
		{
			"inputs": [
				{
					"internalType": "string",
					"name": "electionId",
					"type": "string"
				},
				{
					"internalType": "address[]",
					"name": "voters",
					"type": "address[]"
				}
			],
			"name": "addVotersBatch",
			"outputs": [],
			"stateMutability": "nonpayable",
			"type": "function"
		},
		{
			"inputs": [
				{
					"internalType": "string",
					"name": "electionId",
					"type": "string"
				},
				{
					"internalType": "bytes32",
					"name": "commitment",
					"type": "bytes32"
				}
			],
			"name": "commitVote",
			"outputs": [],
			"stateMutability": "nonpayable",
			"type": "function"
		},
		{
			"inputs": [
				{
					"internalType": "string",
					"name": "",
					"type": "string"
				},
				{
					"internalType": "address",
					"name": "",
					"type": "address"
				}
			],
			"name": "commitments",
			"outputs": [
				{
					"internalType": "bytes32",
					"name": "",
					"type": "bytes32"
				}
			],
			"stateMutability": "view",
			"type": "function"
		},
		{
			"inputs": [
				{
					"internalType": "string",
					"name": "electionId",
					"type": "string"
				}
			],
			"name": "createElection",
			"outputs": [],
			"stateMutability": "nonpayable",
			"type": "function"
		},
		{
			"inputs": [
				{
					"internalType": "string",
					"name": "",
					"type": "string"
				}
			],
			"name": "elections",
			"outputs": [
				{
					"internalType": "string",
					"name": "electionId",
					"type": "string"
				},
				{
					"internalType": "address",
					"name": "admin",
					"type": "address"
				},
				{
					"internalType": "enum TrustlessVote.Phase",
					"name": "currentPhase",
					"type": "uint8"
				},
				{
					"internalType": "uint256",
					"name": "totalVoters",
					"type": "uint256"
				},
				{
					"internalType": "uint256",
					"name": "totalCommitted",
					"type": "uint256"
				},
				{
					"internalType": "uint256",
					"name": "totalRevealed",
					"type": "uint256"
				},
				{
					"internalType": "bool",
					"name": "exists",
					"type": "bool"
				}
			],
			"stateMutability": "view",
			"type": "function"
		},
		{
			"inputs": [
				{
					"internalType": "string",
					"name": "",
					"type": "string"
				},
				{
					"internalType": "address",
					"name": "",
					"type": "address"
				}
			],
			"name": "eligibleVoters",
			"outputs": [
				{
					"internalType": "bool",
					"name": "",
					"type": "bool"
				}
			],
			"stateMutability": "view",
			"type": "function"
		},
		{
			"inputs": [
				{
					"internalType": "string",
					"name": "electionId",
					"type": "string"
				}
			],
			"name": "getElectionStats",
			"outputs": [
				{
					"internalType": "address",
					"name": "admin",
					"type": "address"
				},
				{
					"internalType": "enum TrustlessVote.Phase",
					"name": "phase",
					"type": "uint8"
				},
				{
					"internalType": "uint256",
					"name": "totalVoters",
					"type": "uint256"
				},
				{
					"internalType": "uint256",
					"name": "totalCommitted",
					"type": "uint256"
				},
				{
					"internalType": "uint256",
					"name": "totalRevealed",
					"type": "uint256"
				}
			],
			"stateMutability": "view",
			"type": "function"
		},
		{
			"inputs": [
				{
					"internalType": "string",
					"name": "electionId",
					"type": "string"
				},
				{
					"internalType": "string",
					"name": "candidateId",
					"type": "string"
				}
			],
			"name": "getVoteCount",
			"outputs": [
				{
					"internalType": "uint256",
					"name": "",
					"type": "uint256"
				}
			],
			"stateMutability": "view",
			"type": "function"
		},
		{
			"inputs": [
				{
					"internalType": "string",
					"name": "electionId",
					"type": "string"
				},
				{
					"internalType": "address",
					"name": "voter",
					"type": "address"
				}
			],
			"name": "hasCommitted",
			"outputs": [
				{
					"internalType": "bool",
					"name": "",
					"type": "bool"
				}
			],
			"stateMutability": "view",
			"type": "function"
		},
		{
			"inputs": [
				{
					"internalType": "string",
					"name": "",
					"type": "string"
				},
				{
					"internalType": "address",
					"name": "",
					"type": "address"
				}
			],
			"name": "hasRevealed",
			"outputs": [
				{
					"internalType": "bool",
					"name": "",
					"type": "bool"
				}
			],
			"stateMutability": "view",
			"type": "function"
		},
		{
			"inputs": [
				{
					"internalType": "string",
					"name": "electionId",
					"type": "string"
				},
				{
					"internalType": "address",
					"name": "voter",
					"type": "address"
				}
			],
			"name": "isVoterEligible",
			"outputs": [
				{
					"internalType": "bool",
					"name": "",
					"type": "bool"
				}
			],
			"stateMutability": "view",
			"type": "function"
		},
		{
			"inputs": [
				{
					"internalType": "string",
					"name": "electionId",
					"type": "string"
				},
				{
					"internalType": "string",
					"name": "candidateId",
					"type": "string"
				},
				{
					"internalType": "string",
					"name": "secret",
					"type": "string"
				}
			],
			"name": "revealVote",
			"outputs": [],
			"stateMutability": "nonpayable",
			"type": "function"
		},
		{
			"inputs": [
				{
					"internalType": "string",
					"name": "electionId",
					"type": "string"
				},
				{
					"internalType": "enum TrustlessVote.Phase",
					"name": "newPhase",
					"type": "uint8"
				}
			],
			"name": "setPhase",
			"outputs": [],
			"stateMutability": "nonpayable",
			"type": "function"
		},
		{
			"inputs": [
				{
					"internalType": "string",
					"name": "",
					"type": "string"
				},
				{
					"internalType": "string",
					"name": "",
					"type": "string"
				}
			],
			"name": "voteCounts",
			"outputs": [
				{
					"internalType": "uint256",
					"name": "",
					"type": "uint256"
				}
			],
			"stateMutability": "view",
			"type": "function"
		}
	],
	"bytecode": "0x608060405234801561000f575f80fd5b50611a588061001d5f395ff3fe608060405234801561000f575f80fd5b50600436106100f0575f3560e01c80635ef16fdc11610093578063b68d90d811610063578063b68d90d81461025f578063ba1a2de61461029c578063d3f25be2146102af578063d573fda8146102c2575f80fd5b80635ef16fdc146101d857806364f80beb146101fc578063762ec9481461020f5780637dbbefeb1461024c575f80fd5b80634a3ccc96116100ce5780634a3ccc9614610152578063513b15bc146101785780635607395b146101b257806356d8f6fe146101c5575f80fd5b80630fa5fb61146100f457806315cf4a5f1461011c5780631694fa7d14610131575b5f80fd5b610107610102366004611408565b61030a565b60405190151581526020015b60405180910390f35b61012f61012a366004611453565b61034b565b005b61014461013f36600461148d565b6104f0565b604051908152602001610113565b610165610160366004611453565b610534565b604051610113979695949392919061156e565b610144610186366004611408565b81516020818401810180516002825292820194820194909420919093529091525f908152604090205481565b61012f6101c0366004611408565b610613565b61012f6101d33660046115c4565b6107e2565b6101eb6101e6366004611453565b610a83565b604051610113959493929190611606565b61012f61020a36600461163f565b610bf0565b61010761021d366004611408565b81516020818401810180516003825292820194820194909420919093529091525f908152604090205460ff1681565b61012f61025a36600461170a565b610e05565b61010761026d366004611408565b81516020818401810180516001825292820194820194909420919093529091525f908152604090205460ff1681565b61012f6102aa36600461175c565b610f32565b6101076102bd366004611408565b6112f8565b6101446102d036600461148d565b8151602081840181018051600482529282019482019490942091909352815180830184018051928152908401929093019190912091525481565b5f60018360405161031b91906117de565b90815260408051602092819003830190206001600160a01b0385165f908152925290205460ff1690505b92915050565b5f8160405161035a91906117de565b9081526040519081900360200190206005015460ff16156103c25760405162461bcd60e51b815260206004820152601760248201527f456c656374696f6e20616c72656164792065786973747300000000000000000060448201526064015b60405180910390fd5b6040805160e0810182528281523360208201529081015f81526020015f81526020015f81526020015f8152602001600115158152505f8260405161040691906117de565b90815260405190819003602001902081518190610423908261187f565b5060208201516001820180546001600160a01b039092166001600160a01b03198316811782556040850151926001600160a81b03191617600160a01b8360038111156104715761047161153a565b0217905550606082015160028201556080820151600382015560a0820151600482015560c0909101516005909101805460ff191691151591909117905560405133906104be9083906117de565b604051908190038120907f979868a6ec4b771cce59fb848a1eb0e1dcca4c2215a7fdf8bd593ecf860b0cd6905f90a350565b5f60048360405161050191906117de565b90815260200160405180910390208260405161051d91906117de565b908152602001604051809103902054905092915050565b80516020818301810180515f82529282019190930120915280548190610559906117f9565b80601f0160208091040260200160405190810160405280929190818152602001828054610585906117f9565b80156105d05780601f106105a7576101008083540402835291602001916105d0565b820191905f5260205f20905b8154815290600101906020018083116105b357829003601f168201915b505050600184015460028501546003860154600487015460059097015495966001600160a01b0384169660ff600160a01b90950485169650929450909290911687565b815f8160405161062391906117de565b9081526040519081900360200190206005015460ff166106555760405162461bcd60e51b81526004016103b99061193b565b336001600160a01b03165f8260405161066e91906117de565b908152604051908190036020019020600101546001600160a01b0316146106a75760405162461bcd60e51b81526004016103b990611972565b6001836040516106b791906117de565b90815260408051602092819003830190206001600160a01b0385165f908152925290205460ff16156107215760405162461bcd60e51b8152602060048201526013602482015272159bdd195c88185b1c9958591e481859191959606a1b60448201526064016103b9565b6001808460405161073291906117de565b90815260408051602092819003830181206001600160a01b0387165f9081529352908220805460ff191693151593909317909255906107729085906117de565b9081526040519081900360200190206002018054905f61079183611995565b9190505550816001600160a01b0316836040516107ae91906117de565b604051908190038120907f424f3ad05c61ea35cad66f22b70b1fad7250d8229921238078c401db36d34574905f90a3505050565b8160015f826040516107f491906117de565b9081526040519081900360200190206005015460ff166108265760405162461bcd60e51b81526004016103b99061193b565b8060038111156108385761083861153a565b5f8360405161084791906117de565b9081526040519081900360200190206001015460ff600160a01b9091041660038111156108765761087661153a565b146108b15760405162461bcd60e51b815260206004820152600b60248201526a57726f6e6720706861736560a81b60448201526064016103b9565b836001816040516108c291906117de565b9081526040805160209281900383019020335f908152925290205460ff166109215760405162461bcd60e51b81526020600482015260126024820152712737ba1032b634b3b4b13632903b37ba32b960711b60448201526064016103b9565b5f801b60028660405161093491906117de565b9081526040805160209281900383019020335f9081529252902054146109905760405162461bcd60e51b8152602060048201526011602482015270105b1c9958591e4818dbdb5b5a5d1d1959607a1b60448201526064016103b9565b836109d25760405162461bcd60e51b8152602060048201526012602482015271125b9d985b1a590818dbdb5b5a5d1b595b9d60721b60448201526064016103b9565b836002866040516109e391906117de565b908152604080519182900360209081018320335f908152915290812092909255610a0e9087906117de565b9081526040519081900360200190206003018054905f610a2d83611995565b90915550506040513390610a429087906117de565b604051908190038120868252907f87405a246d7aa661d098b3f49fdb4da3c534dc825c42e7a54e94c634bb4d0c2d9060200160405180910390a35050505050565b5f805f805f805f87604051610a9891906117de565b90815260200160405180910390206040518060e00160405290815f82018054610ac0906117f9565b80601f0160208091040260200160405190810160405280929190818152602001828054610aec906117f9565b8015610b375780601f10610b0e57610100808354040283529160200191610b37565b820191905f5260205f20905b815481529060010190602001808311610b1a57829003601f168201915b505050918352505060018201546001600160a01b0381166020830152604090910190600160a01b900460ff166003811115610b7457610b7461153a565b6003811115610b8557610b8561153a565b8152602001600282015481526020016003820154815260200160048201548152602001600582015f9054906101000a900460ff161515151581525050905080602001518160400151826060015183608001518460a00151955095509550955095505091939590929450565b815f81604051610c0091906117de565b9081526040519081900360200190206005015460ff16610c325760405162461bcd60e51b81526004016103b99061193b565b336001600160a01b03165f82604051610c4b91906117de565b908152604051908190036020019020600101546001600160a01b031614610c845760405162461bcd60e51b81526004016103b990611972565b5f5b8251811015610dff57600184604051610c9f91906117de565b90815260200160405180910390205f848381518110610cc057610cc06119b9565b6020908102919091018101516001600160a01b031682528101919091526040015f205460ff16610ded5760018085604051610cfb91906117de565b90815260200160405180910390205f858481518110610d1c57610d1c6119b9565b60200260200101516001600160a01b03166001600160a01b031681526020019081526020015f205f6101000a81548160ff0219169083151502179055505f84604051610d6891906117de565b9081526040519081900360200190206002018054905f610d8783611995565b9190505550828181518110610d9e57610d9e6119b9565b60200260200101516001600160a01b031684604051610dbd91906117de565b604051908190038120907f424f3ad05c61ea35cad66f22b70b1fad7250d8229921238078c401db36d34574905f90a35b80610df781611995565b915050610c86565b50505050565b815f81604051610e1591906117de565b9081526040519081900360200190206005015460ff16610e475760405162461bcd60e51b81526004016103b99061193b565b336001600160a01b03165f82604051610e6091906117de565b908152604051908190036020019020600101546001600160a01b031614610e995760405162461bcd60e51b81526004016103b990611972565b815f84604051610ea991906117de565b908152604051908190036020019020600101805460ff60a01b1916600160a01b836003811115610edb57610edb61153a565b021790555082604051610eee91906117de565b60405180910390207fe2214160f34f6d8b6c8a62b1c9c824b98285880e6e5093a1360d41bddedea9c383604051610f2591906119cd565b60405180910390a2505050565b8260025f82604051610f4491906117de565b9081526040519081900360200190206005015460ff16610f765760405162461bcd60e51b81526004016103b99061193b565b806003811115610f8857610f8861153a565b5f83604051610f9791906117de565b9081526040519081900360200190206001015460ff600160a01b909104166003811115610fc657610fc661153a565b146110015760405162461bcd60e51b815260206004820152600b60248201526a57726f6e6720706861736560a81b60448201526064016103b9565b8460018160405161101291906117de565b9081526040805160209281900383019020335f908152925290205460ff166110715760405162461bcd60e51b81526020600482015260126024820152712737ba1032b634b3b4b13632903b37ba32b960711b60448201526064016103b9565b5f801b60028760405161108491906117de565b9081526040805160209281900383019020335f9081529252902054036110e25760405162461bcd60e51b8152602060048201526013602482015272139bc818dbdb5b5a5d1b595b9d08199bdd5b99606a1b60448201526064016103b9565b6003866040516110f291906117de565b9081526040805160209281900383019020335f908152925290205460ff16156111505760405162461bcd60e51b815260206004820152601060248201526f105b1c9958591e481c995d99585b195960821b60448201526064016103b9565b5f85856040516020016111649291906119db565b6040516020818303038152906040528051906020012090508060028860405161118d91906117de565b9081526040805160209281900383019020335f9081529252902054146111e65760405162461bcd60e51b815260206004820152600e60248201526d125b9d985b1a59081c995d99585b60921b60448201526064016103b9565b60016003886040516111f891906117de565b9081526040805160209281900383018120335f90815293529120805460ff1916921515929092179091556004906112309089906117de565b90815260200160405180910390208660405161124c91906117de565b9081526040519081900360200190208054905f61126883611995565b91905055505f8760405161127c91906117de565b9081526040519081900360200190206004018054905f61129b83611995565b909155505060405133906112b09089906117de565b60405180910390207f30c82809aaba21a5f98db9768ef602f525f1ce624af1fdc80b8b59c83f3ec912886040516112e79190611a09565b60405180910390a350505050505050565b5f805f1b60028460405161130c91906117de565b908152604080519182900360209081019092206001600160a01b0386165f90815292529020541415905092915050565b634e487b7160e01b5f52604160045260245ffd5b604051601f8201601f1916810167ffffffffffffffff811182821017156113795761137961133c565b604052919050565b5f82601f830112611390575f80fd5b813567ffffffffffffffff8111156113aa576113aa61133c565b6113bd601f8201601f1916602001611350565b8181528460208386010111156113d1575f80fd5b816020850160208301375f918101602001919091529392505050565b80356001600160a01b0381168114611403575f80fd5b919050565b5f8060408385031215611419575f80fd5b823567ffffffffffffffff81111561142f575f80fd5b61143b85828601611381565b92505061144a602084016113ed565b90509250929050565b5f60208284031215611463575f80fd5b813567ffffffffffffffff811115611479575f80fd5b61148584828501611381565b949350505050565b5f806040838503121561149e575f80fd5b823567ffffffffffffffff808211156114b5575f80fd5b6114c186838701611381565b935060208501359150808211156114d6575f80fd5b506114e385828601611381565b9150509250929050565b5f5b838110156115075781810151838201526020016114ef565b50505f910152565b5f81518084526115268160208601602086016114ed565b601f01601f19169290920160200192915050565b634e487b7160e01b5f52602160045260245ffd5b6004811061156a57634e487b7160e01b5f52602160045260245ffd5b9052565b60e081525f61158060e083018a61150f565b6001600160a01b0389166020840152905061159e604083018861154e565b8560608301528460808301528360a083015282151560c083015298975050505050505050565b5f80604083850312156115d5575f80fd5b823567ffffffffffffffff8111156115eb575f80fd5b6115f785828601611381565b95602094909401359450505050565b6001600160a01b038616815260a08101611623602083018761154e565b8460408301528360608301528260808301529695505050505050565b5f8060408385031215611650575f80fd5b823567ffffffffffffffff80821115611667575f80fd5b61167386838701611381565b9350602091508185013581811115611689575f80fd5b8501601f81018713611699575f80fd5b8035828111156116ab576116ab61133c565b8060051b92506116bc848401611350565b81815292820184019284810190898511156116d5575f80fd5b928501925b848410156116fa576116eb846113ed565b825292850192908501906116da565b8096505050505050509250929050565b5f806040838503121561171b575f80fd5b823567ffffffffffffffff811115611731575f80fd5b61173d85828601611381565b925050602083013560048110611751575f80fd5b809150509250929050565b5f805f6060848603121561176e575f80fd5b833567ffffffffffffffff80821115611785575f80fd5b61179187838801611381565b945060208601359150808211156117a6575f80fd5b6117b287838801611381565b935060408601359150808211156117c7575f80fd5b506117d486828701611381565b9150509250925092565b5f82516117ef8184602087016114ed565b9190910192915050565b600181811c9082168061180d57607f821691505b60208210810361182b57634e487b7160e01b5f52602260045260245ffd5b50919050565b601f82111561187a575f81815260208120601f850160051c810160208610156118575750805b601f850160051c820191505b8181101561187657828155600101611863565b5050505b505050565b815167ffffffffffffffff8111156118995761189961133c565b6118ad816118a784546117f9565b84611831565b602080601f8311600181146118e0575f84156118c95750858301515b5f19600386901b1c1916600185901b178555611876565b5f85815260208120601f198616915b8281101561190e578886015182559484019460019091019084016118ef565b508582101561192b57878501515f19600388901b60f8161c191681555b5050505050600190811b01905550565b60208082526017908201527f456c656374696f6e20646f6573206e6f74206578697374000000000000000000604082015260600190565b6020808252600990820152682737ba1030b236b4b760b91b604082015260600190565b5f600182016119b257634e487b7160e01b5f52601160045260245ffd5b5060010190565b634e487b7160e01b5f52603260045260245ffd5b60208101610345828461154e565b5f83516119ec8184602088016114ed565b835190830190611a008183602088016114ed565b01949350505050565b602081525f611a1b602083018461150f565b939250505056",
	"linkReferences": {},
	"deployedLinkReferences": {},
	"immutableReferences": {},
	"inputSourceName": "project/contracts/TrustlessVote.sol"
}