{
  "_format": "hh-sol-artifact-1",
  "contractName": "TrustlessVote",
  "sourceName": "contracts/CampusVote.sol",
  "abi": [
    {
      "inputs": [],
      "stateMutability": "nonpayable",
      "type": "constructor"
    },
    {
      "inputs": [
        {
          "internalType": "address",
          "name": "voter",
          "type": "address"
        }
      ],
      "name": "addVoter",
      "outputs": [],
      "stateMutability": "nonpayable",
      "type": "function"
    },
    {
      "inputs": [],
      "name": "admin",
      "outputs": [
        {
          "internalType": "address",
          "name": "",
          "type": "address"
        }
      ],
      "stateMutability": "view",
      "type": "function"
    },
    {
      "inputs": [
        {
          "internalType": "bytes32",
          "name": "commitment",
          "type": "bytes32"
        }
      ],
      "name": "commitVote",
      "outputs": [],
      "stateMutability": "nonpayable",
      "type": "function"
    },
    {
      "inputs": [
        {
          "internalType": "address",
          "name": "",
          "type": "address"
        }
      ],
      "name": "commitments",
      "outputs": [
        {
          "internalType": "bytes32",
          "name": "",
          "type": "bytes32"
        }
      ],
      "stateMutability": "view",
      "type": "function"
    },
    {
      "inputs": [],
      "name": "currentPhase",
      "outputs": [
        {
          "internalType": "enum TrustlessVote.Phase",
          "name": "",
          "type": "uint8"
        }
      ],
      "stateMutability": "view",
      "type": "function"
    },
    {
      "inputs": [
        {
          "internalType": "address",
          "name": "",
          "type": "address"
        }
      ],
      "name": "eligibleVoters",
      "outputs": [
        {
          "internalType": "bool",
          "name": "",
          "type": "bool"
        }
      ],
      "stateMutability": "view",
      "type": "function"
    },
    {
      "inputs": [],
      "name": "nextPhase",
      "outputs": [],
      "stateMutability": "nonpayable",
      "type": "function"
    },
    {
      "inputs": [
        {
          "internalType": "uint256",
          "name": "choice",
          "type": "uint256"
        },
        {
          "internalType": "string",
          "name": "secret",
          "type": "string"
        }
      ],
      "name": "revealVote",
      "outputs": [],
      "stateMutability": "nonpayable",
      "type": "function"
    },
    {
      "inputs": [
        {
          "internalType": "uint256",
          "name": "",
          "type": "uint256"
        }
      ],
      "name": "voteCount",
      "outputs": [
        {
          "internalType": "uint256",
          "name": "",
          "type": "uint256"
        }
      ],
      "stateMutability": "view",
      "type": "function"
    }
  ],
  "bytecode": "0x608060405234801561001057600080fd5b5033600060016101000a81548173ffffffffffffffffffffffffffffffffffffffff021916908373ffffffffffffffffffffffffffffffffffffffff16021790555060008060006101000a81548160ff0219169083600381111561007757610076610081565b5b02179055506100b0565b7f4e487b7100000000000000000000000000000000000000000000000000000000600052602160045260246000fd5b610e4b806100bf6000396000f3fe608060405234801561001057600080fd5b50600436106100935760003560e01c8063772c816111610066578063772c81611461010c578063e8efd48014610128578063e8fcf72314610158578063f4ab9adf14610188578063f851a440146101a457610093565b8063055ad42e146100985780633e858923146100b65780633eadb6db146100d25780634fc8a20d146100dc575b600080fd5b6100a06101c2565b6040516100ad91906107c4565b60405180910390f35b6100d060048036038101906100cb919061081f565b6101d3565b005b6100da6103a0565b005b6100f660048036038101906100f19190610882565b610498565b60405161010391906108be565b60405180910390f35b6101266004803603810190610121919061093e565b6104b0565b005b610142600480360381019061013d91906109fc565b610605565b60405161014f9190610a44565b60405180910390f35b610172600480360381019061016d91906109fc565b610625565b60405161017f9190610a6e565b60405180910390f35b6101a2600480360381019061019d91906109fc565b61063d565b005b6101ac610727565b6040516101b99190610a98565b60405180910390f35b60008054906101000a900460ff1681565b60018060038111156101e8576101e761074d565b5b60008054906101000a900460ff1660038111156102085761020761074d565b5b14610248576040517f08c379a000000000000000000000000000000000000000000000000000000000815260040161023f90610b10565b60405180910390fd5b600160003373ffffffffffffffffffffffffffffffffffffffff1673ffffffffffffffffffffffffffffffffffffffff16815260200190815260200160002060009054906101000a900460ff166102d4576040517f08c379a00000000000000000000000000000000000000000000000000000000081526004016102cb90610b7c565b60405180910390fd5b6000801b600260003373ffffffffffffffffffffffffffffffffffffffff1673ffffffffffffffffffffffffffffffffffffffff1681526020019081526020016000205414610358576040517f08c379a000000000000000000000000000000000000000000000000000000000815260040161034f90610be8565b60405180910390fd5b81600260003373ffffffffffffffffffffffffffffffffffffffff1673ffffffffffffffffffffffffffffffffffffffff168152602001908152602001600020819055505050565b600060019054906101000a900473ffffffffffffffffffffffffffffffffffffffff1673ffffffffffffffffffffffffffffffffffffffff163373ffffffffffffffffffffffffffffffffffffffff1614610430576040517f08c379a000000000000000000000000000000000000000000000000000000000815260040161042790610c54565b60405180910390fd5b600160008054906101000a900460ff1660038111156104525761045161074d565b5b61045c9190610ca3565b600381111561046e5761046d61074d565b5b6000806101000a81548160ff021916908360038111156104915761049061074d565b5b0217905550565b60036020528060005260406000206000915090505481565b60028060038111156104c5576104c461074d565b5b60008054906101000a900460ff1660038111156104e5576104e461074d565b5b14610525576040517f08c379a000000000000000000000000000000000000000000000000000000000815260040161051c90610b10565b60405180910390fd5b600084848460405160200161053c93929190610d37565b60405160208183030381529060405280519060200120905080600260003373ffffffffffffffffffffffffffffffffffffffff1673ffffffffffffffffffffffffffffffffffffffff16815260200190815260200160002054146105d5576040517f08c379a00000000000000000000000000000000000000000000000000000000081526004016105cc90610dad565b60405180910390fd5b6003600086815260200190815260200160002060008154809291906105f990610dcd565b91905055505050505050565b60016020528060005260406000206000915054906101000a900460ff1681565b60026020528060005260406000206000915090505481565b600060019054906101000a900473ffffffffffffffffffffffffffffffffffffffff1673ffffffffffffffffffffffffffffffffffffffff163373ffffffffffffffffffffffffffffffffffffffff16146106cd576040517f08c379a00000000000000000000000000000000000000000000000000000000081526004016106c490610c54565b60405180910390fd5b60018060008373ffffffffffffffffffffffffffffffffffffffff1673ffffffffffffffffffffffffffffffffffffffff16815260200190815260200160002060006101000a81548160ff02191690831515021790555050565b600060019054906101000a900473ffffffffffffffffffffffffffffffffffffffff1681565b7f4e487b7100000000000000000000000000000000000000000000000000000000600052602160045260246000fd5b6004811061078d5761078c61074d565b5b50565b600081905061079e8261077c565b919050565b60006107ae82610790565b9050919050565b6107be816107a3565b82525050565b60006020820190506107d960008301846107b5565b92915050565b600080fd5b600080fd5b6000819050919050565b6107fc816107e9565b811461080757600080fd5b50565b600081359050610819816107f3565b92915050565b600060208284031215610835576108346107df565b5b60006108438482850161080a565b91505092915050565b6000819050919050565b61085f8161084c565b811461086a57600080fd5b50565b60008135905061087c81610856565b92915050565b600060208284031215610898576108976107df565b5b60006108a68482850161086d565b91505092915050565b6108b88161084c565b82525050565b60006020820190506108d360008301846108af565b92915050565b600080fd5b600080fd5b600080fd5b60008083601f8401126108fe576108fd6108d9565b5b8235905067ffffffffffffffff81111561091b5761091a6108de565b5b602083019150836001820283011115610937576109366108e3565b5b9250929050565b600080600060408486031215610957576109566107df565b5b60006109658682870161086d565b935050602084013567ffffffffffffffff811115610986576109856107e4565b5b610992868287016108e8565b92509250509250925092565b600073ffffffffffffffffffffffffffffffffffffffff82169050919050565b60006109c98261099e565b9050919050565b6109d9816109be565b81146109e457600080fd5b50565b6000813590506109f6816109d0565b92915050565b600060208284031215610a1257610a116107df565b5b6000610a20848285016109e7565b91505092915050565b60008115159050919050565b610a3e81610a29565b82525050565b6000602082019050610a596000830184610a35565b92915050565b610a68816107e9565b82525050565b6000602082019050610a836000830184610a5f565b92915050565b610a92816109be565b82525050565b6000602082019050610aad6000830184610a89565b92915050565b600082825260208201905092915050565b7f57726f6e67207068617365000000000000000000000000000000000000000000600082015250565b6000610afa600b83610ab3565b9150610b0582610ac4565b602082019050919050565b60006020820190508181036000830152610b2981610aed565b9050919050565b7f4e6f7420656c696769626c650000000000000000000000000000000000000000600082015250565b6000610b66600c83610ab3565b9150610b7182610b30565b602082019050919050565b60006020820190508181036000830152610b9581610b59565b9050919050565b7f416c726561647920636f6d6d6974746564000000000000000000000000000000600082015250565b6000610bd2601183610ab3565b9150610bdd82610b9c565b602082019050919050565b60006020820190508181036000830152610c0181610bc5565b9050919050565b7f4e6f742061646d696e0000000000000000000000000000000000000000000000600082015250565b6000610c3e600983610ab3565b9150610c4982610c08565b602082019050919050565b60006020820190508181036000830152610c6d81610c31565b9050919050565b7f4e487b7100000000000000000000000000000000000000000000000000000000600052601160045260246000fd5b6000610cae8261084c565b9150610cb98361084c565b9250828201905080821115610cd157610cd0610c74565b5b92915050565b6000819050919050565b610cf2610ced8261084c565b610cd7565b82525050565b600081905092915050565b82818337600083830152505050565b6000610d1e8385610cf8565b9350610d2b838584610d03565b82840190509392505050565b6000610d438286610ce1565b602082019150610d54828486610d12565b9150819050949350505050565b7f496e76616c69642072657665616c000000000000000000000000000000000000600082015250565b6000610d97600e83610ab3565b9150610da282610d61565b602082019050919050565b60006020820190508181036000830152610dc681610d8a565b9050919050565b6000610dd88261084c565b91507fffffffffffffffffffffffffffffffffffffffffffffffffffffffffffffffff8203610e0a57610e09610c74565b5b60018201905091905056fea264697066735822122068b0394e838ee616e207509be113a30a628a0d43c1150f50089bb14f8876121964736f6c63430008140033",
  "linkReferences": {},
  "deployedLinkReferences": {}
}